:100000000C9434000C9451000C9451000C94510049
:100010000C9451000C9451000C9451000C9451001C
:100020000C9451000C9451000C9451000C9451000C
:100030000C9451000C9451000C9451000C945100FC
:100040000C9451000C9451000C9451000C945100EC
:100050000C9451000C9451000C9451000C945100DC
:100060000C9451000C94510011241FBECFEFD8E026
:10007000DEBFCDBF11E0A0E0B1E0E0EBF3E002C0F5
:1000800005900D92A832B107D9F721E0A8E2B1E0BE
:1000900001C01D92A035B207E1F70E94B7010C9490
:1000A000D6010C94000098E02D9887FF02C02C9A8E
:1000B00001C02C982D9A880F9150B1F70895CF93D5
:1000C000DF931F92CDB7DEB769830E945300698129
:1000D000862F0F90DF91CF910C945300CF93DF9335
:1000E000C1E02A98D4E060E08C2F0E945F00D150DC
:1000F000D1F72A9ACF5FC930A1F7DF91CF91089548
:10010000CF9384B1846384B92A98C4E060E089E025
:100110000E945F00C150D1F72A9A2A98C4E068E093
:100120008AE00E945F00C150D1F72A9A2A98C4E061
:1001300067E08BE00E945F00C150D1F72A9A2A98AD
:10014000C4E061E08CE00E945F00C150D1F72A9AC0
:100150002A98C4E060E08FE00E945F00C150D1F7B0
:100160002A9ACF910C946E00EF92FF920F931F93F7
:10017000CF93DF931F92CDB7DEB700E311E091E09C
:100180002A98E12CF12C892F99830E945300F801C1
:10019000EE0DFF1D80810E9453008FEFE81AF80AD0
:1001A0009981E4E0EE16F10471F72A9A9F5F0C5FE3
:1001B0001F4F993029F70F90DF91CF911F910F9129
:1001C000FF90EF900895CF92DF92EF92FF920F93FE
:1001D0001F93CF93DF93E0E3EE2EE1E0FE2EEB01E1
:1001E00061E371E0DA0142E351E0690123E331E0C8
:1001F000FC011081002379F01095F701108318811C
:100200001095FB0110831C911095FA011083F601E3
:10021000108110950AC0F70110831881FB0110832B
:100220001C91FA011083F6011081F90110830196E7
:10023000F4E0EF0EF11C21966C5F7F4F11964C5F3E
:100240005F4FEFEFCE1ADE0A2C5F3F4FF0E5EF165F
:10025000F1E0FF0669F6DF91CF911F910F91FF90BA
:10026000EF90DF90CF9008950F9300E020E031E011
:1002700040E151E0B901CA010E94E3000E94B400CC
:100280002FEE89E492E0215080409040E1F700C0D9
:10029000000001E020E031E040E151E0B901CA0195
:1002A0000E94E3000E94B4002FEE89E492E0215006
:1002B00080409040E1F700C000000F9108950F9337
:1002C00000E028E031E040E051E0B901CA010E94BD
:1002D000E3000E94B4002FEE89E492E021508040B8
:1002E0009040E1F700C0000001E028E031E040E08C
:1002F00051E0B901CA010E94E3000E94B4002FEE50
:1003000089E492E0215080409040E1F700C0000075
:100310000F9108950F9300E028E031E040E051E0B4
:10032000BA0180E191E00E94E3000E94B4002FEE48
:1003300089E492E0215080409040E1F700C0000045
:1003400001E028E031E040E051E0BA0180E191E0D5
:100350000E94E3000E94B4002FEE89E492E0215055
:1003600080409040E1F700C000000F9108950E9486
:100370008000C0E0C53020F40E943401CF5FFACF86
:100380000E945F010E945F010E945F010E945F0165
:100390000E945F010E948A010E948A010E948A01D4
:1003A0000E948A010E948A01C0E0E6CFF894FFCF44
:1003B0000000FFFFFFFF0000181CFEFFFEFC1810EE
:1003C00018387FFF7F3F18080066660018244242F5
:0803D000026666004242241897
:00000001FF
